:020000040800F2
:100000004007002091010008131900082913000877
:10001000111900088F0400086D1900080000000085
:100020000000000000000000000000001719000898
:1000300091040008000000001519000819190008B3
:10004000AB010008AB010008AB010008AB010008E0
:10005000AB010008AB010008AB010008AB010008D0
:10006000AB010008AB010008AB010008AB010008C0
:10007000AB010008AB010008AB010008AB010008B0
:10008000AB010008AB010008AB010008AB010008A0
:10009000AB010008AB010008AB010008AB01000890
:1000A000AB010008AB010008AB010008AB01000880
:1000B000AB010008AB010008AB010008AB01000870
:1000C000AB010008AB010008AB010008AB01000860
:1000D000AB010008AB010008AB010008AB01000850
:1000E000AB010008AB010008AB01000800F002F80A
:1000F00000F03FF80AA090E8000C82448344AAF183
:100100000107DA4501D100F034F8AFF2090EBAE880
:100110000F0013F0010F18BFFB1A43F0010318473B
:10012000B01F0000D01F0000103A24BF78C878C16B
:10013000FAD8520724BF30C830C144BF04680C60ED
:10014000704700000023002400250026103A28BF35
:1001500078C1FBD8520728BF30C148BF0B60704739
:10016000642900F07D80002070471FB51FBD10B5C9
:1001700010BD00F052F91146FFF7F7FF01F09AFCAD
:1001800000F070F903B4FFF7F2FF03BC00F078F958
:100190000948804709480047FEE7FEE7FEE7FEE71B
:1001A000FEE7FEE7FEE7FEE7FEE7FEE70448054957
:1001B000054A064B704700006B190008ED00000867
:1001C00040010020400700204003002040030020A1
:1001D0000FB41CB5074B06AA7B44694600900598EE
:1001E00000F003F90020694600F012F91CBC5DF82C
:1001F00014FB0000350200002DE9F0410E460446D4
:10020000002020622046E168884730B3252805D0C9
:10021000D4E901219047206A401CF2E7E1682046BA
:1002200000278847050018D0A5F14100192802D8F9
:1002300020354FF400673246294620462760FFF7F5
:100240008FFF40B1012804D0F61D26F007060836BE
:10025000D8E7361DD6E72846DAE7206ABDE8F08100
:100260002DE9F0410646002410687529314616A58F
:1002700010D0AFF30080002802DA404213A507E057
:1002800031688A0701D512A502E0490704D511A5F6
:10029000012401E0AFF3008000210A2206F12407C7
:1002A00009E0B0FBF2FCB0FBF2F302FB1C003030C3
:1002B00078541846491C0028F3D123462A46304674
:1002C000BDE8F04100F032B8000000002D00000051
:1002D0002B000000200000004FF0000200B5134684
:1002E00094469646203922BFA0E80C50A0E80C5056
:1002F000B1F12001BFF4F7AF090728BFA0E80C5007
:1003000048BF0CC05DF804EB890028BF40F8042BFF
:1003100008BF704748BF20F8022B11F0804F18BF6C
:1003200000F8012B70477047704770472DE9F04780
:100330000D4699469246044600F124080168880655
:1003400004D5E06921F01001216000E00120A842FD
:1003500001DD471B00E00027A1697A1902EB0900C3
:10036000081AA0612078C00602D42046AFF30080AE
:10037000002608E0D4E901211AF806009047206A17
:10038000401C761C20624E45F4DB2078C0060AD55E
:100390002046AFF3008006E0D4E9012130209047E9
:1003A000206A401C2062381EA7F10107F4DC07E038
:1003B000D4E9012118F805009047206A401C20620A
:1003C000281EA5F10105F3DC2046AFF3008020785C
:1003D000000602D50220BDE8F0870120FBE70000FF
:1003E00001694A1C02610878704700B58FB0CDE9F9
:1003F00001310021059105497944CDE903101146E9
:100400006846FFF7F9FE0FB000BD0000E5FFFFFFF3
:100410000A6802F8010B0A607047754600F02CF874
:10042000AE4605006946534620F00700854618B0E1
:1004300020B5FFF7BBFEBDE820404FF000064FF0AF
:1004400000074FF000084FF0000B21F00701AC4609
:10045000ACE8C009ACE8C009ACE8C009ACE8C00928
:100460008D46704710B50446AFF300802046BDE8C6
:100470001040FFF787BE000000487047DC000020F6
:1004800001491820ABBEFEE7260002007047FEE7D8
:100490007047000070B5044600F0FEF80546601C89
:1004A00002D004480078044400F0F6F8401BA04253
:1004B000FAD370BD240000202DE9F84FDFF8B89181
:1004C0000024A9F1040B23460F2709F1040AABF11C
:1004D000040EC9E00125A5402A40AA427DD1674EFD
:1004E000D1F804C0ACEB0608B44532D014DCBCF142
:1004F000030F3AD009DCBCF1000F2AD0BCF1010F88
:100500001CD0BCF1020F31D11DE0BCF1110F17D08E
:10051000BCF1120F2AD119E0B8F5881F19D006DCFA
:10052000B8F5803F15D0B8F5801F1FD111E0B8F5A0
:10053000001F0ED0B8F5041F18D10AE0CB6815E0F3
:10054000CB681B1D12E0CB6808330FE0CB680C337F
:100550000CE08B682BB1012B4FF0080303D04561F1
:1005600004E0042302E0056100E00023FF2A01D833
:10057000064601E000F104064FEA840501D9A5F121
:100580002005D6F8008007FA05FC28EA0C0803FAD3
:1005900005F548EA0508C6F800804D68ED0062D50B
:1005A000374DAE6946F00106AE61AD6924F0030631
:1005B00005F001050095334D06EB050CDCF80850FD
:1005C000A607360F07FA06F825EA0805DFF8B8800F
:1005D000404503D14FF0000817E044E0DFF8AC805D
:1005E000404502D14FF001080FE0DFF8A4804045FC
:1005F00002D14FF0020808E0DFF89880404502D1B0
:100600004FF0030801E04FF0040808FA06F848EA42
:100610000508CCF808804D68D9F80060ED024D4619
:1006200001D5164300E096432E604D68DAF800606D
:10063000AD02554601D5164300E096432E604D6845
:10064000DBF80060AD035D4601D5164300E096433C
:100650002E604D68DEF80060ED03754601D5164347
:1006600000E096432E60641C0D682A46E5407FF446
:1006700031AFBDE8F88F0000080401400000111000
:10068000001002400000014000080140000C014041
:1006900000100140001401400148806870470000CC
:1006A0002400002070B5040025D094F83D000025FA
:1006B00020B984F83C50204600F00EFB242084F83A
:1006C0003D002068016821F0010101602068016897
:1006D00041F4004101602068016821F4004101609B
:1006E00000F048FC4D4A6168914201D84C4900E055
:1006F0004C49884201D2012070BD4B492368B0FBB0
:10070000F1F15E6826F03F060E435E606368934237
:1007100006D94FF4967359434FF47A73B1FBF3F152
:100720002368491C1E6A26F03F063143196261683E
:10073000914210D84900401EB0FBF1F2521CC2F3A6
:100740000B02042A01D2042022E0B0FBF1F0401C8D
:10075000C0F30B001CE0A268F2B301EBC10303EB92
:100760000116431EB3FBF6F35B1C43F480431B05E9
:1007700049D092B301EBC10202EB0111401EB0FB64
:10078000F1F0401CC0F30B0040F4804040F4004006
:100790002168CA694CF6FF739A431043C861D4E9D3
:1007A000071001432068026822F0C0021143016073
:1007B000D4E9030101432068826848F2FF339A4379
:1007C00011438160D4E9050108432168CA6822F019
:1007D000FF021043C86001E00EE016E020680168E7
:1007E00041F0010101602564202084F83D0025636B
:1007F00084F83E50002070BD01EB4106431EB3FB60
:10080000F6F35B1CB3E70120C2E701EB4101401E98
:10081000B0FBF1F0401CC0F30B00B7E7A08601006D
:1008200080841E0000093D0040420F002DE9F84F72
:100830001F4690468A460446DDF82890FFF72CFFB5
:10084000054694F83D0020287FD119230122404914
:100850002046009500F0CCFE002876D194F83C00AC
:10086000012872D0012084F83C0020680168C90783
:1008700003D1016841F0010101602068016821F4A1
:1008800000610160212084F83D00102084F83E00C2
:1008900000262664C4F824806785608D20852D4855
:1008A000E0622B464A465146204600F055FD90B97D
:1008B000206841698069009036E02A464946204612
:1008C00000F074FF50B1206C042804D12068016846
:1008D00041F4007101600120BDE8F88F606A216871
:1008E00000780861606A401C6062618D491E618504
:1008F000218D491E89B2218522685369DB435B073C
:100900000BD451B100781061606A401C6062608D48
:10091000401E6085208D401E20852A46494620467F
:1009200000F03AFE0028CED1208D0028C5D154F821
:100930003D0B016841F400710160202004F81E099C
:10094000E67766770020C7E7FFE70220C4E70000EC
:10095000020010000000FFFF2DE9FF4F83B00025CB
:10096000DDE910799A4693460446DDF84880009503
:10097000FFF792FE064694F83D0020287CD119230B
:10098000012285492046009600F032FE0028F5D16C
:1009900094F83C0001286FD0012084F83C002068C6
:1009A0000168C90703D1016841F0010101602068B5
:1009B000016821F400610160222084F83D0040209C
:1009C00084F83E0025646762A4F82A90608D208533
:1009D0007248E062CDE9008653465A4620460499A3
:1009E00000F008FD00287DD1208DDFF8B49120278C
:1009F00068B1012814D00228206801681ED041F493
:100A0000806101602068416980690090B6E02068DB
:100A1000416981690091016841F400710160ADE0B4
:100A20002068016821F48061016072B62068416924
:100A300081690091016841F400710AE041F40061AC
:100A4000016072B62068416981690091016821F4F2
:100A50008061016062B691E0032868D801280CD05B
:100A6000022843464FF000024946204600960FD028
:100A700000F0BEFDB0BB10E08BE0324641462046A0
:100A800000F05CFE70BB20680069616A08706CE071
:100A900000F0AEFD30BB72B634E02068016821F48E
:100AA0008061016072B620680069616A0870606ADE
:100AB000401C6062208D401E2085608D401E608538
:100AC000384846F2A8110068B0FBF1F0C0EBC00056
:100AD00000EB80000090401E009008D02068406924
:100AE000C04300E029E040070CD50098F3E744F844
:100AF000305F6773A573206940F02000206162B603
:100B000025731AE02068016841F4007101602068D3
:100B10000069616A0870606A401C6062218D491E2C
:100B20002185618D491E618562B621681BE03246D0
:100B30004146204600F002FE18B1012007B0BDE892
:100B4000F08F20680069616A0870606A401C60620A
:100B5000218D491E2185618D491E618521684A6963
:100B6000D24352070AD409690170606A401C60626E
:100B7000208D401E2085608D401E6085208D0028C0
:100B80007FF46AAF84F83D7084F83E5084F83C509E
:100B9000D4E70220D2E70000020010000000FFFFAF
:100BA00004000100300000202DE9FF4F83B09A4679
:100BB000DDE9119793460446DDF84080FFF76CFDB0
:100BC000054694F83D0020287FD119230122404991
:100BD0002046009500F00CFD002876D194F83C00EA
:100BE000012872D0012084F83C0020680168C90700
:100BF00003D1016841F0010101602068016821F41E
:100C000000610160212084F83D00402084F83E000E
:100C100000262664C4F82480A4F82A90608D2085DC
:100C20002C48E062CDE9007553465A4620460499A7
:100C300000F05EFC70B930E02A463946204600F0EC
:100C4000B5FD58B1206C042804D12068016841F436
:100C500000710160012007B0BDE8F08F606A216873
:100C600000780861606A401C6062218D491E89B26B
:100C70002185628D521E628522685369DB435B07C2
:100C80000BD469B100781061606A401C6062208DED
:100C9000401E2085608D401E6085208D0028CBD1B0
:100CA0002A463946204600F077FC0028CAD154F87D
:100CB0003D0B016841F400710160202004F81E0919
:100CC000E67766770020C6E7FFE70220C3E700006B
:100CD000020010000000FFFF10B586B00021009157
:100CE00001910291039100680F4988421AD10F4C7B
:100CF000A06940F00800A061A069694600F0080002
:100D00000490C02000901220019003200390084816
:100D1000FFF7D2FBE06940F40010E061E06900F405
:100D20000010049006B010BD0054004000100240B6
:100D3000000C0140024881680278114481607047CC
:100D400024000020074810B5016841F0100101603F
:100D5000032000F067F80F2000F006F800F024F8F8
:100D6000002010BD0020024070B50D4D04464FF428
:100D70007A712878B1FBF0F00A490968B1FBF0F00C
:100D800000F0BEFA48B9102C07D200222146501EAE
:100D900000F028F800206C6070BD012070BD0000DC
:100DA00024000020300000200C4808B5816941F083
:100DB00001018161816901F001010091C16941F086
:100DC0008051C161C06900F08050009004484168C2
:100DD00021F0E06141F00071416008BD0010024067
:100DE00000000140F0B40E4B1B680C46C3F3022315
:100DF000C3F10705042D00D90425191D072901D2C7
:100E0000002300E0DB1E012606FA05F1491E214001
:100E100099409E40761E16403143F0BC00F0A7BDBD
:100E20000CED00E0064900F0070208684FF6FF03EA
:100E3000184040EA0220034A10430860704700004F
:100E40000CED00E00000FA052DE9F0470F46050023
:100E500061D0434E306800F00700B84209D23068D4
:100E600020F0070038433060306800F00700B842D7
:100E700051D128683B4C810712D5400703D56068E3
:100E800040F4E06060602878000703D5606840F4B3
:100E9000605060606068A96820F0F00008436060FE
:100EA0002878C00728D06868012810D02168022857
:100EB00010D0890700292EDA616821F0030101436F
:100EC0006160FFF7E9FB804641F288390DE0216857
:100ED0008903EFE78901EDE7FFF7DEFBA0EB0801EF
:100EE000494502D90320BDE8F0876068696800F0D1
:100EF0000C00B0EB810FEFD1306800F00700B84272
:100F00000BD9306820F0070038433060306800F0BB
:100F10000700B84201D00120E5E72878400705D551
:100F20006068E96820F4E0600843606028780007A2
:100F300006D56068296920F4605040EAC10060600D
:100F400000F028F86168084AC1F30311515CC840F9
:100F50000649086006480068FFF706FF0020C2E760
:100F60000020024000100240B8200008300000209D
:100F7000280000200448054900684968044AC1F374
:100F80000221515CC8407047300000200010024030
:100F9000C82000080E4A51680E4801F00C03042BCB
:100FA00011D0082B0FD10C48C1F38343C903C05C97
:100FB0000AD55168084AC1F34041921E515C054A66
:100FC0005043B0FBF1F070470449484370470000BC
:100FD0000010024000127A00A820000800093D001D
:100FE0002DE9F84F040070D02078C04DC00749D0DB
:100FF0006868C0F38100012807D06868C0F38100E9
:10100000022809D16868C00306D52868800339D54D
:1010100060680028E7D035E06068B0F5803F0BD00D
:1010200010B1B0F5A02F11D0286820F480302860CE
:10103000286820F4802002E0286840F4803028608E
:10104000606890B1FFF728FB06460AE0286840F484
:1010500080202860F0E700BFFFF71EFB801B64289C
:1010600073D828688003F7D50CE0FFF715FB064618
:1010700005E000BFFFF710FB801B6428F0D828684C
:101080008003F7D420789A4E80074FF001094FF083
:10109000000839D5686810F00C0F07D06868C0F3F5
:1010A0008100022809D16868C00306D42868800737
:1010B00014D52069012808D110E02069B0B1C6F824
:1010C0000090FFF7E9FA074605E00AE1FFF7E4FAC6
:1010D000C01B0228C4D828688007F7D52868616932
:1010E00020F0F80040EAC10028600DE0C6F800805A
:1010F000FFF7D2FA074604E0FFF7CEFAC01B02283A
:1011000023D828688007F7D4207800072CD57948A1
:10111000A169D9B1C0F80090FFF7BEFA074604E014
:10112000FFF7BAFAC01B02280FD8686A8007F7D504
:1011300071484FF4FA510068B0FBF1F0009000BF25
:101140000098411E0091FAD20EE080E0C0F80080C5
:10115000FFF7A2FA074604E0FFF79EFAC01B022839
:1011600075D8686A8007F7D42078400760D5E869A9
:101170000027C00008D4E86940F08050E861E869C1
:10118000012700F0805000905C480168C90513D425
:101190000168834641F480710160FFF77DFA824661
:1011A00006E000BFFFF778FAA0EB0A0064284ED8EB
:1011B000DBF80000C005F5D5E06801280AD008B1C9
:1011C000052813D0286A20F001002862286A20F040
:1011D000040002E0286A40F001002862E06841F261
:1011E000883B98B1FFF758FA82460BE0286A40F036
:1011F00004002862EEE700BFFFF74EFAA0EB0A01F9
:1012000059455AD8286A8007F6D50CE0FFF744FA0A
:10121000824605E0FFF740FAA0EB0A0159454CD899
:10122000286A8007F6D41FB1E86920F08050E86191
:10123000E06988B36968C1F38101022944D00228BA
:10124000C6F8608004D0FFF727FA044638E034E09F
:10125000FFF722FA074604E0FFF71EFAC01B022838
:101260002BD828688001F7D4206AB0F5803F05D1DB
:101270006868A16820F4003008436860D4E9080178
:101280000843696821F4741108436860C6F86090E7
:10129000FFF702FA044606E025E000BFFFF7FCF97D
:1012A000001B022809D828688001F7D51BE000BF81
:1012B000FFF7F2F9001B022802D90320BDE8F88FDE
:1012C00028688001F4D40EE00128F7D06868226A0B
:1012D00000F48031914204D1616A00F470108842B8
:1012E00001D00120EAE70020E8E7000000100240FA
:1012F0000000424280044242300000200070004062
:1013000010B5401EB0F1807F01D3012010BD4FF019
:10131000E02460610F21601700F029FB0020A0612C
:1013200007202061002010BDFEE701684A69D24312
:1013300052050FD46FF480624A61002140F8301FDB
:10134000202242738173026942F004020261017338
:101350000120704700207047F8B50446C06A1E4659
:101360000D461746082807D0012805D010F5803F04
:1013700002D0206B122804D12068016841F48071EA
:101380000160134600224FF001112046009600F044
:101390002FF940B120680068C00502D54FF40070F5
:1013A00020640320F8BD2069B0F5804F0ED00620E0
:1013B000216800EAD51040F0F000086133463A4653
:1013C0000B49204600F05CF978B902E005F0FE0018
:1013D00000E0E8B221680861054933463A46891FB2
:1013E000204600F04DF90028DCD00120F8BD0000B7
:1013F000080001002DE9F84F0446006889460B9D5E
:1014000001689846174641F48061016020680168D0
:1014100041F48071016000954FF0011B0022594694
:1014200020460A9B00F0E4F84FF4007A40B12068AF
:101430000068C00501D5C4F840A00320BDE8F88FBE
:10144000216809F0FE0008612B46284920460A9AC7
:1014500000F016F9F0BB20684169806900902A46C7
:1014600020460A9900F0A2F940B1206C04283AD134
:101470002068016841F40071016034E0FEB2B8F107
:10148000010F09D02168380A08612A4620460A99C6
:1014900000F08CF90028E8D1206806612A46204631
:1014A0000A9900F083F90028DFD12068016841F42F
:1014B0008071016000950022594620460A9B00F089
:1014C00097F80028B3D1216809F0FF0040F001002F
:1014D000086100E007E02B46044920460A9A00F024
:1014E000CFF80028AAD00120A8E7000002000100E0
:1014F0002DE9F843044600680D46DDE908970168C8
:101500009846164641F4807101604B4600224FF028
:1015100001112046009700F06BF848B12068006880
:10152000C00502D54FF4007020640320BDE8F883A5
:10153000216805F0FE0008613B464A4615492046F1
:1015400000F09EF888B920684169806900903A46A9
:101550004946204600F02AF948B1206C042804D1FD
:101560002068016841F4007101600120DEE7F5B2F6
:10157000B8F1010F09D02168300A08613A4649469E
:10158000204600F013F90028E7D12068056100200B
:10159000CCE700000200010070B516460D46044677
:1015A0001EE02046FFF7C1FE08B1012070BD681C97
:1015B00016D0FFF771F8801BA84200D885B92068C3
:1015C0004069C04340070BD5002044F8300F20216C
:1015D0006173A073216941F0200121612073E4E768
:1015E00020684069C0434007DBD4002070BD000084
:1015F0002DE9F047984617460D460446C1F30746C5
:10160000DDF820902AE000BFB8F1FF3F26D0FFF7B9
:1016100043F8A0EB0901414502D8B8F1000F1DD1F4
:101620002068012E16D0806925EA00000004000C15
:1016300012D00020B84211D1002044F8300F2021F0
:101640006173A073216941F02001216120730120A1
:10165000BDE8F0874069E7E70120EBE72068012E4D
:101660000AD0806925EA00000004000C06D00020A2
:10167000B842C9D00020EBE74069F3E70120F7E763
:101680002DE9F047984616460D4604464FF00009EE
:101690004FF0200AC1F3074723E020684069C043A8
:1016A000400515D42068016841F40071016021688B
:1016B0006FF480604861C4F8309084F83DA084F8ED
:1016C0003E90216C41F00401216484F83C9021E0BB
:1016D000701C06D0FEF7E0FFA0EB0800B04203D874
:1016E00016B1012F1FD021E02068012F15D080698D
:1016F00025EA00000004000C18D000BF44F8309F19
:1017000084F80DA084F80E90216941F02001216138
:1017100084F80C900120BDE8F087406925EA0000BC
:101720000004000CEAD12068406901E0206880696B
:1017300025EA00000004000CAFD1ECE72DE9F041F0
:10174000002590460E460446202728E04069C04305
:10175000C0060CD454F8301B6FF01000486144F8F8
:1017600010596777A577206A2062257714E0FEF785
:1017700093FFA0EB0800B04200D886B9206840690A
:10178000C04340060BD544F8305F6773A5732069EA
:1017900040F02000206125730120BDE8F081206821
:1017A0004169C9434906D1D40020F6E770B5164611
:1017B0000D4604461EE02046FFF7B7FD08B10120A4
:1017C00070BD681C16D0FEF767FF801BA84200D8CA
:1017D00085B920684069C04300060BD5002044F855
:1017E000300F20216173A073216941F02001216134
:1017F0002073E4E720684069C0430006DBD4002082
:1018000070BD0000F0B585B0012504A8CDE9000544
:101810004FF47A742B467522D02102941B48FFF7AF
:101820009BF89DF8100068282ED1002703AE8DF894
:101830000C700096CDE9015401236B22D02113488E
:10184000FFF7B2F907208DF80C000096CDE901549E
:1018500001231922D0210D48FFF7A6F98DF80C704D
:101860000096CDE9015401231C22D0210748FFF73F
:101870009BF98DF80C700096CDE9015401231B22D1
:10188000D0210248FFF790F905B0F0BD34000020E8
:10189000F0B585B04FF47A72062103A88DE80700F1
:1018A00001233B22D0211848FFF756F8BDF80C0061
:1018B000164C40BA00B22080BDF80E1049BA0EB2E4
:1018C0006680BDF8101049BA0DB2A58000F0EAF9A3
:1018D0006FF00D073A4600F0A0FB00F0A9F9E060B8
:1018E000304600F0DFF93A4600F097FB00F0A0F92F
:1018F0002061284600F0D6F93A4600F08EFB00F051
:1019000097F9606105B0F0BD3400002000000020B0
:10191000FEE7FEE770477047FFF70CBA30B58FB0AF
:1019200028216846FEF7D8FC14210AA8FEF7D4FC4B
:1019300001210804CDE9001000240294022504913D
:10194000CDE907504FF4E01009906846FFF748FBD7
:101950000F20CDE90A056802CDE90C4002210AA852
:101960000E94FFF771FA0FB030BD7047FEE709071C
:10197000090E002804DB00F1E02080F80014704715
:1019800000F00F0000F1E02080F8141D704710B542
:10199000802000F045F80024202000F061F8641C4D
:1019A000462CF9DB10BD10B53220FEF773FD302058
:1019B00000F036F80520FEF76DFD302000F030F81D
:1019C0000120FEF767FD302000F02AF80A20FEF71C
:1019D00061FD202000F024F80A20FEF75BFD28209E
:1019E00000F01EF80120FEF755FD082000F018F861
:1019F0000120FEF74FFD012000F012F80120FEF754
:101A000049FD0120FEF746FD062000F009F80120FF
:101A1000FEF740FDBDE810400C2000F001B80000CA
:101A20001CB500F0F00141F00C028DF8042041F0EB
:101A3000080100018DF8051040F00C018DF806102A
:101A400040F008008DF8070064200090042301AAEC
:101A50004E210248FEF7EAFE1CBD000034000020C3
:101A60001CB500F0F00141F00D028DF8042041F0AA
:101A7000090100018DF8051040F00D018DF80610E8
:101A800040F009008DF8070064200090042301AAAB
:101A90004E210248FEF7CAFE1CBD000034000020A3
:101AA00010B5044602E0641CFFF7DAFF2078002836
:101AB000F9D110BD86B00025FFF744F9FFF72EFFDE
:101AC0004748816941F020018161816901F020016D
:101AD0000091816941F008018161816901F008018B
:101AE0000091816941F00401816180693D4900F004
:101AF000040000903C483D4E00240160C0E90164B0
:101B00000F14C0E9034744618461C4610462FEF7B5
:101B1000C9FD3548364954300160C0E90164C0E967
:101B2000034744618461C4610462FEF7BBFDFFF7B3
:101B30003AFFFFF767FE2FA0FFF7B2FF4FF47A706E
:101B4000FEF7A8FCFFF723FFDA20FFF769FF2CA0C0
:101B5000FFF7A6FFFFF79CFE2B4CDFF8B090DFF8F5
:101B6000B0A0D4E90476D4F80C8000BFFFF790FE53
:101B7000E1684046049100F0A9F98346216938469E
:101B8000019100F0A3F9029061693046009100F0E4
:101B90009DF9484502DC1F4988420ED3D34507DA38
:101BA0001D4A904204D80298504501DA904204D967
:101BB000DDE90067DDF810806D1C8020FFF730FF45
:101BC00016A0FFF76DFF2A4618A103A8FEF700FB39
:101BD00003A8FFF765FF4FF47A70FEF75BFCC5E7DB
:101BE000001002400054004034000020A086010094
:101BF00000580040696E697469616C697A656400B7
:101C00004D50553630353000000000200AD7A33D36
:101C1000CDCC4C3E0AD7A3BDCDCC4CBE5374657021
:101C200020636F756E7465723A20000025640000B1
:101C300021F00042A2F16052B2F5801F01F0004392
:101C400028BFD2F17F6C0BD95FEA001C43EAC202C5
:101C500042EB507018BF704728BF20F0010070475A
:101C6000B2F5801FBCBF184670474FEA410C1CF507
:101C7000001F02D2084600F023B970B500F029F821
:101C800000000089FFF7F6BF4FF00040A0F580008C
:101C90007047000002494FF0000000F08CB900BF0F
:101CA0000000F87F10F0004248BF4042B0FA80F3D5
:101CB00010FA03F10AD0C3F11D0303F580634FEA64
:101CC000415002EB035202EBD12170474FF000006C
:101CD00070470EF1020E2EF0030E5EF8046B3642D2
:101CE00005D4012A43EB030515F5001F12D801287E
:101CF00041EB010C1CF5001F0CD80ED14FEAD17C32
:101D000015F5001F0CEB4C0C0CF1020C08BF4CEB52
:101D1000D37C04E04FF0080C01E04FEAD37C0CEBDD
:101D20004C0526FA05F606F00706B6F1040C06D2B5
:101D30000EEB860CBDE870404CF0010C6047DFE80C
:101D40000CF0090B02024FF000414FF00000A1F52A
:101D5000002170BD19461046012851EB010418BF3F
:101D6000D4F5001484BF002001F0004170BD0000D4
:101D700090EA010F48BF81F0004100F1AE80421AA5
:101D80003CBF801A89184FEAD0524FF07F4C1CEAB2
:101D9000410FA2EBD15318BF9CEA026F00F03B80C9
:101DA0004FF0004C4CEA00204CEA012121FA03FCE0
:101DB00010EB0C0C1ED202F1FF325FEA1C2040EB4C
:101DC000C25038BF70471CF07F0F4FEA400C18BF5D
:101DD000BCF17F4F38BF7047C3F12003994008BF63
:101DE00020F00100BCF17F4F38BF7047A0F1C04028
:101DF00000F066B84FEA3C00000A40EBC25028BF32
:101E00001CF0FF0F4FEA400CE6D018BFBCF17F4F2B
:101E100038BF7047EAE79CEA026F05D010EA5C0F12
:101E200008BF00F00040704710B500F003F800BF95
:101E300064FBBE3E0EF1020E2EF0030E5EF8044B64
:101E4000244204D44FEA4102B2F17F4F11D84FEA45
:101E50004003B3F17F4F0CD80ED14FEAD07CB2F1E2
:101E60007F4F0CEB4C0C0CF1020C08BF4CEBD17CFF
:101E700004E04FF0080C01E04FEAD17C0CEB4C037E
:101E800024FA03F404F00704B4F1040C06D20EEBB8
:101E9000840CBDE810404CF0010C6047DFE80CF00A
:101EA000070802024FF00040A0F5800010BD084670
:101EB000420018BFD2F1807288BF00F0004010BD10
:101EC000FF2141EAD050C0057047000090EA010FA1
:101ED00048BF81F000413FF552AF421A04D882F06A
:101EE0000042A0EB020011444FEAD0524FF07F4C69
:101EF0001CEA410FA2EBD15318BF9CEA026F4AD0F3
:101F00004FF0004C4CEA00204CEA012121FA03FC7E
:101F1000B0EB0C0C0FD412F0FE0F36D05FEA4C0081
:101F20001DD5001240EBC25038BF70471CF03F0F68
:101F300018BF70470BE0A2F101025FEA1C2040EBE2
:101F4000C25038BF70471CF07F0F18BF7047C3F1F5
:101F50002003994014BF401E20F001007047800804
:101F60004FEA122308BF7047B0FA80FCA2EB0C02C4
:101F7000CCF1280C60FA0CF093EA122F04BF00EBAE
:101F8000C25070474FEAC3707047130A5FEADC1013
:101F900008BF7047F6E79CEA026F04D010EA5C0FB6
:101FA00008BF0020704710B5FFF744FF40DFF63E42
:101FB00081F0004070470CF00F03092B08BF082088
:101FC00000F059800A2B0BD0082B18BF704708BFB0
:101FD0001CF0400F0AD04FF000004FF00001704796
:101FE0001CF0400F18BF4FF0004070471CF0100F5E
:101FF00008D020F0704300F07F4242EAD3014FEA5C
:102000004370704700F0604021F07F4242EA0002D6
:1020100001F07F4040EA727070474FF0FF0C4CF4C3
:10202000E06C1CEA11531CBF9CEA030C9445C2BF30
:10203000DA4201EB02517047002B0DD0BCF1000FCA
:102040000FD0002A01F00041A4BF41F0E04141F06F
:102050007F614FF00000704701F000414FF0000039
:10206000704750EA01334FF09B0C18BF4CF0806C66
:102070007FF410AE70471CF4801F11D01CF4E02FC9
:1020800003D06FEACC31490070474FF04050EFF376
:10209000008222F0704242EA000282F30088704718
:1020A0004FF000007047010202030405060708090B
:1020B0000A0B0C0D0E0F10100000000000000000B5
:1020C00001020304060708090000000001020304DE
:1020D000F020000800000020340000002801000863
:1020E00024210008340000200C07000044010008EF
:1020F00000000000000000000000000000000000E0
:1021000000000000000000000000000000000000CF
:1021100000000000010000001000000000000000AE
:042120000024F400A3
:04000005080000ED02
:00000001FF
